:020000040800F2
:1000000018050020010100082318000883160008C5
:10001000211800089B070008411C00080000000090
:10002000000000000000000000000000251900088A
:1000300073090008000000001519000827190008BE
:100040001B0100081B0100081B0100081B01000820
:100050001B0100081B0100081B0100081B01000810
:100060001B0100081B0100081B0100081B01000800
:100070001B0100081B0100081B0100081B010008F0
:100080001B0100081B0100081B0100081B010008E0
:100090001B0100081B0100081B0100081B010008D0
:1000A0001B0100081B0100081B0100081B010008C0
:1000B000C1190008CD1900081B0100081B01000828
:1000C0001B0100081B0100081B0100081B010008A0
:1000D0001B0100081B0100081B0100081B01000890
:1000E0001B0100081B0100081B010008DFF80CD0F1
:1000F00000F020FB00480047A92500081805002053
:100100000648804706480047FEE7FEE7FEE7FEE7B1
:10011000FEE7FEE7FEE7FEE7FEE7FEE779190008E7
:10012000ED000008202A04DB203A21FA02F0002129
:10013000704721FA02F3D040C2F1200291400843F7
:1001400019467047D2B201E000F8012B491EFBD2DC
:1001500070470022F6E710B513460A4604461946D2
:10016000FFF7F0FF204610BD70B521F000430343B8
:100170000CD0C1F30A550024D5EB040564EB04034D
:10018000D617AD1AB34102DB0020014670BD20181E
:1001900041EB025170BD0EB540F233410291002196
:1001A000CDE900110A460B4600F0BEF803B000BDD1
:1001B00000F0004230F000400AD0C10D01F560713E
:1001C000C0F3160042EA0151C208400711437047CC
:1001D00000200146704701F0004330B421F0004197
:1001E00050EA010206D00A0DA2F56072C1F31301B4
:1001F000002A02DC30BC00207047440F44EAC104EE
:10020000C100E01830BC00EBC25000F047B830B578
:100210000B46014600202022012409E021FA02F5C4
:100220009D4205D303FA02F5491B04FA02F528445E
:10023000151EA2F10102F1DC30BD2DE9F05F05468B
:10024000002092469B4688460646814640241BE095
:100250002846414647462246FFF764FF53465A4622
:10026000C01A914110D311461846224600F074FA84
:100270002D1A67EB01084F4622460120002100F0AD
:100280006BFA17EB00094E41201EA4F10104DFDCDC
:10029000484631462A464346BDE8F09F0029A8BF9C
:1002A0007047401C490008BF20F00100704710B49F
:1002B000B0FA80FC00FA0CF050EA010404BF10BC54
:1002C000704749B1CCF1200421FA04F411FA0CF181
:1002D00018BF012121430843A3EB0C01CB1D4FEABA
:1002E00000614FEA102042BF002010BC704700EBB5
:1002F000C35010440029A4BF10BC7047401C4900E3
:1003000008BF20F0010010BC704710B5141E73F137
:10031000000408DA401C41F1000192185B411A43C5
:1003200001D120F0010010BD2DE9F04D92469B4611
:1003300011B1B1FA81F202E0B0FA80F220329046B7
:1003400000F00AFA04460F4640EA0A0041EA0B01AF
:1003500053465A46084313D0114653EA010019D0B8
:10036000C8F140025046FFF7DDFE05460E465046F6
:100370005946424600F0F0F9084305D0012004E058
:1003800020463946BDE8F08D0020054346EAE07678
:100390002C4337430A986305E40AA0EB08000022C7
:1003A000FD0A44EA47540A3002D500200146E9E735
:1003B000010510196941DDE9084500196941BDE8E9
:1003C000F04DA2E72DE9FE4F804681EA0300C00F01
:1003D0000C46009021F0004123F00045B8EB0200EC
:1003E000A94105D24046214690461C460B4602468E
:1003F00023F00040104347D0270DC7F30A00C3F392
:100400000A510290401A019040286BDAC3F313009E
:1004100040F4801B0098924620B10023D2EB030ADF
:1004200063EB0B0B01985946C0F14002504600F0B7
:1004300093F906460D4650465946019A00F09BF93D
:1004400010EB08006141002487EA115284EAE77347
:100450001A4340D0009A62B3019A012A4FEA075228
:1004600015DC001B61EB02014FF0004202EA07526B
:10047000CDE90042001C41F5801132462B46FFF7C2
:1004800053FF03B0BDE8F08F40462146F9E7001B5B
:1004900061EB0201001C41F5801300185B4120183C
:1004A000A2F5001747EB030140EAD570B6196D417C
:1004B00011E06D084FEA360645EAC0754FEA07526B
:1004C000001B61EB0201001C41F5801149084FEA55
:1004D00030000019514132462B4603B0BDE8F04FC1
:1004E000FFF713BF0098012240000023D0EB020267
:1004F00063EBE073009821464FEAE074B8EB00002C
:1005000061EB0401E9E783F000435BE781F0004120
:1005100058E72DE9FE4F81EA030404F0004421F07E
:10052000004100944FF0000B23F0004350EA010417
:100530005ED052EA03045BD0C3F30A54C1F30A55F8
:100540002C44A4F2F3340194A0FB0254C1F3130130
:1005500041F48011C3F3130343F4801301FB0244FD
:1005600000FB034E840A970A44EA815447EA835702
:10057000A4FB076802958D0A05FB07854FEA932CBB
:1005800004FB0C542705029D4FEA065847EA16372C
:10059000B5EB08056EEB070C870E920E47EA811744
:1005A00042EA8312A7FB0201B6EB0B0164EB0004E5
:1005B0002B0D43EA0C335E1844EB1C50DA465146CF
:1005C000E7FB0201C5F313044FEA0B3343EA14536C
:1005D0004FEA0432019C43EA0603A4F10C0402949E
:1005E000009CCDE900B4FFF79FFE03B0BDE8F08F9B
:1005F00000200146F9E72DE9F04D81EA030404F0FB
:10060000004B21F0004514464FF0000A23F0004152
:1006100050EA050220D054EA01021DD0C5F30A5762
:100620000246C5F31303C1F31300C1F30A5640F4A5
:10063000801543F48013A7EB0608101BD64608F27A
:10064000FD3873EB050002D308F1010801E09218B0
:100650005B41B8F1000F03DA00200146BDE8F08DE0
:1006600000204FF48011064684460EE0171B73EB02
:10067000050705D3121B63EB050306434CEA010C87
:1006800049084FEA300092185B4150EA0107EDD16A
:1006900052EA030012D082EA040083EA050108430B
:1006A00005D0101BAB4106D20122002306E0002238
:1006B0004FF0004302E06FF0010253101AEB060006
:1006C0004CEB085110EB0A0041EB0B01BDE8F04D7B
:1006D000FFF71BBEC1F30A52C1F3130140F2FF330F
:1006E00041F480119A4202DA00200146704740F23C
:1006F00033439A42A2F2334202DC5242FFF712BD68
:1007000000F02AB830B5041E71F1000404DB4FF08C
:100710000044404264EB0101141E73F1000405DB48
:100720001C464FF00043524263EB0403994208BF5A
:10073000904230BD064C074D06E0E06840F00103F2
:1007400094E8070098471034AC42F6D3FFF7D2FC88
:100750001829000838290008202A04DB203A00FA6A
:1007600002F1002070479140C2F1200320FA03F308
:10077000194390407047202A06DBCB17203A41FAF4
:1007800002F043EAE07306E041FA02F3D040C2F11E
:1007900020029140084319467047FEE710B5114CFE
:1007A0000220214600F0F4F800220221204600F049
:1007B000F2F9012001F0D8FE01220221204600F0CA
:1007C000EAF92146022000F0D6F8062001F0CCFE1E
:1007D0000221204600F0DAF90446302001F0C4FE80
:1007E000204610BD0008014070B50824FFF7D6FF71
:1007F000690841EAC010C5B2302001F0B5FE641EA0
:10080000F4D1284670BD2DE9F0410F46044600F0B2
:100810004DF8552000F0A0F8002C44D0207800F0CE
:100820009BF8607800F098F8A07800F095F8E078F0
:1008300000F092F8207900F08FF8607900F08CF8E1
:10084000A07900F089F8E07900F086F8BE2000F089
:1008500083F8FFF7C9FF60F30705FFF7C5FF60F3F3
:100860000F25FFF7C1FF60F31745FFF7BDFF60F3EA
:100870001F65FFF7B9FF60F30706FFF7B5FF60F3E9
:100880000F26FFF7B1FF60F31746FFF7ADFF60F3E8
:100890001F66FFF7A9FFE8B2290A40EA0120388065
:1008A000F0B2BDE8F0810020FBE7000070B5154D07
:1008B0000220294600F06CF800220221284600F0B0
:1008C0006AF94FF4207001F04FFE01220221284600
:1008D00000F061F900242946022000F04CF807E0FE
:1008E00001F02AFE641CA4B2052C01D9002070BDC1
:1008F0000221284600F04AF900284FF00100EFD10C
:1009000070BD00000008014070B5124C054621463C
:10091000022000F03DF800220221204600F03BF9C1
:10092000012001F021FE05F001020221204600F025
:1009300032F9442001F018FE01220221204600F085
:100940002AF92146022000F016F8BDE87040012087
:1009500001F00ABE0008014070B505465FF00004D2
:1009600005F00100FFF7D0FF6D08641C082CF7D3D9
:1009700070BD704770471FB50022CDE9000201200D
:10098000CDE902020B466946184600F00FF81FBD7C
:100990001FB50A46009001200190029003200390A9
:1009A0006946104600F002F81FBD00002DE9F84F1F
:1009B000DFF8B891002409F1040A0AF1040B234678
:1009C0000F270BF1040EC9E00125A5402A40AA42D9
:1009D0007DD1674ED1F804C0ACEB0608B44532D0E7
:1009E00014DCBCF1030F3AD009DCBCF1000F2AD0B3
:1009F000BCF1010F1CD0BCF1020F31D11DE0BCF1E4
:100A0000110F17D0BCF1120F2AD119E0B8F5881FC9
:100A100019D006DCB8F5803F15D0B8F5801F1FD17E
:100A200011E0B8F5001F0ED0B8F5041F18D10AE088
:100A3000CB6815E0CB681B1D12E0CB6808330FE0D4
:100A4000CB680C330CE08B682BB1012B4FF0080303
:100A500003D0456104E0042302E0056100E00023C7
:100A6000FF2A01D8064601E000F104064FEA84059A
:100A700001D9A5F12005D6F8008007FA05FC28EA7F
:100A80000C0803FA05F548EA0508C6F800804D6829
:100A9000ED0062D5374DAE6946F00106AE61AD6935
:100AA00024F0030605F001050095334D06EB050C17
:100AB000DCF80850A607360F07FA06F825EA0805FD
:100AC000DFF8B880404503D14FF0000817E044E05C
:100AD000DFF8AC80404502D14FF001080FE0DFF8AD
:100AE000A480404502D14FF0020808E0DFF898806A
:100AF000404502D14FF0030801E04FF0040808FA26
:100B000006F848EA0508CCF808804D68D9F8006076
:100B1000ED034D4601D5164300E096432E604D6827
:100B2000DAF80060AD03554601D5164300E0964360
:100B30002E604D68DBF80060ED025D4601D516437E
:100B400000E096432E604D68DEF80060AD02754609
:100B500001D5164300E096432E60641C0D682A46BA
:100B6000E5407FF431AFBDE8F88F0000000401409C
:100B70000000111000100240000001400008014078
:100B8000000C014000100140001401408068084042
:100B900000D0012070470AB1016170470904FBE7EA
:100BA00001488068704700001000002002488168FA
:100BB000027811448160704710000020074810B58A
:100BC000016841F010010160032000F075F8002079
:100BD00000F006F800F024F8002010BD00200240CC
:100BE00070B50D4D04464FF47A712878B1FBF0F0E2
:100BF0000A490968B1FBF0F000F0F0FA48B9102C8E
:100C000007D200222146501E00F036F800206C600A
:100C100070BD012070BD0000100000201C000020ED
:100C20000C4808B5816941F001018161816901F0D9
:100C300001010091C16941F08051C161C06900F0BA
:100C4000805000900448416821F0E06141F000715B
:100C5000416008BD0010024000000140002809DB8F
:100C600000F01F02012191404009800000F1E020C6
:100C7000C0F8001170470000F0B40E4B1B680C4622
:100C8000C3F30223C3F10705042D00D90425191D60
:100C9000072901D2002300E0DB1E012606FA05F138
:100CA000491E214099409E40761E16403143F0BCBB
:100CB00000F0D8BF0CED00E0064900F0070208681C
:100CC0004FF6FF03184040EA0220034A1043086031
:100CD000704700000CED00E00000FA052DE9F04738
:100CE0000F46050061D0434E306800F00700B8425F
:100CF00009D2306820F0070038433060306800F0D7
:100D00000700B84251D128683B4C810712D54007F3
:100D100003D5606840F4E06060602878000703D580
:100D2000606840F4605060606068A96820F0F0007E
:100D3000084360602878C00728D06868012810D070
:100D40002168022810D0890700292EDA616821F075
:100D5000030101436160FFF723FF804641F28839B8
:100D60000DE021688903EFE78901EDE7FFF718FF40
:100D7000A0EB0801494502D90320BDE8F08760686F
:100D8000696800F00C00B0EB810FEFD1306800F023
:100D90000700B8420BD9306820F0070038433060B4
:100DA000306800F00700B84201D00120E5E728785C
:100DB000400705D56068E96820F4E060084360609A
:100DC0002878000706D56068296920F4605040EA59
:100DD000C100606000F038F86168084AC1F303118F
:100DE000515CC8400649086006480068FFF7F8FEF5
:100DF0000020C2E700200240001002400029000845
:100E00001C000020140000200448054900684968BF
:100E1000044AC1F30221515CC84070471C00002005
:100E2000001002401029000804480549006849687C
:100E3000044AC1F3C221515CC84070471C00002025
:100E4000001002401029000813A185B00FC98DE8D9
:100E50000F0015A0154A00680490516801F00C00BD
:100E6000042804D0082804D0114805B07047114860
:100E7000FBE7C1F38343C9031DF8030009D551689B
:100E800004AAC1F34041515C0A4A5043B0FBF1F05F
:100E9000EBE709494843E8E70203040506070809A8
:100EA0000A0B0C0D0E0F1010010200000010024082
:100EB00000127A00001BB70000093D002DE9F84F31
:100EC000040070D02078C04DC00749D06868C0F3D6
:100ED0008100012807D06868C0F38100022809D189
:100EE0006868C00306D52868800339D56068002883
:100EF000E7D035E06068B0F5803F0BD010B1B0F5B9
:100F0000A02F11D0286820F480302860286820F4B1
:100F1000802002E0286840F480302860606890B14A
:100F2000FFF73EFE06460AE0286840F4802028606D
:100F3000F0E700BFFFF734FE801B642873D82868F1
:100F40008003F7D50CE0FFF72BFE064605E000BF57
:100F5000FFF726FE801B6428F0D828688003F7D4AA
:100F600020789A4E80074FF001094FF0000839D5DC
:100F7000686810F00C0F07D06868C0F38100022881
:100F800009D16868C00306D42868800714D5206991
:100F9000012808D110E02069B0B1C6F80090FFF731
:100FA000FFFD074605E00AE1FFF7FAFDC01B022836
:100FB000C4D828688007F7D52868616920F0F80050
:100FC00040EAC10028600DE0C6F80080FFF7E8FDA8
:100FD000074604E0FFF7E4FDC01B022823D8286879
:100FE0008007F7D4207800072CD57948A169D9B1BA
:100FF000C0F80090FFF7D4FD074604E0FFF7D0FDEE
:10100000C01B02280FD8686A8007F7D571484FF4D3
:10101000FA510068B0FBF1F0009000BF0098411E4B
:101020000091FAD20EE080E0C0F80080FFF7B8FD32
:10103000074604E0FFF7B4FDC01B022875D8686AB4
:101040008007F7D42078400760D5E8690027C00002
:1010500008D4E86940F08050E861E869012700F0B1
:10106000805000905C480168C90513D4016883462C
:1010700041F480710160FFF793FD824606E000BFF6
:10108000FFF78EFDA0EB0A0064284ED8DBF80000C5
:10109000C005F5D5E06801280AD008B1052813D0AD
:1010A000286A20F001002862286A20F0040002E08B
:1010B000286A40F001002862E06841F2883B98B15C
:1010C000FFF76EFD82460BE0286A40F004002862BC
:1010D000EEE700BFFFF764FDA0EB0A0159455AD8BF
:1010E000286A8007F6D50CE0FFF75AFD824605E036
:1010F000FFF756FDA0EB0A0159454CD8286A800736
:10110000F6D41FB1E86920F08050E861E06988B347
:101110006968C1F38101022944D00228C6F86080C1
:1011200004D0FFF73DFD044638E034E0FFF738FD1A
:10113000074604E0FFF734FDC01B02282BD82868BF
:101140008001F7D4206AB0F5803F05D16868A168B6
:1011500020F4003008436860D4E908010843696856
:1011600021F4741108436860C6F86090FFF718FD19
:10117000044606E025E000BFFFF712FD001B022831
:1011800009D828688001F7D51BE000BFFFF708FDEC
:10119000001B022802D90320BDE8F88F28688001CF
:1011A000F4D40EE00128F7D06868226A00F4803198
:1011B000914204D1616A00F47010884201D001208C
:1011C000EAE70020E8E70000001002400000424289
:1011D000800442421C0000200070004010B5401EF8
:1011E000B0F1807F01D3012010BD4FF0E024606199
:1011F0000F21601700F036FD0020A061072020615C
:10120000002010BD7047704770B590F83C20012A4F
:1012100019D0012400F83C4F0222427050F83C3CA7
:101220005A689D6822F070060A684968324325F0C2
:10123000800529435A6050F83C2C9160447000218D
:101240000170084670BD022070BD10B5040003D0C7
:1012500094F83D0010B107E0012010BD002084F893
:101260003C00204600F00CF8022084F83D00211DCF
:10127000206800F0B1FB012084F83D00002010BD83
:1012800008B501681448B1F1804F14D0134A914257
:1012900020D1C16941F00201C161C069002200F0A2
:1012A0000200009011461D20FFF7E6FC1D20BDE85E
:1012B0000840FFF7D3BCC16941F00101C161C069B9
:1012C000002200F00100009011461C20FFF7D4FC22
:1012D0001C20ECE708BD00000010024000040040A4
:1012E000022180F83D1001688A6802F00702062A90
:1012F00003D00A6842F001020A60012180F83D1023
:1013000000207047022180F83D1001680A6A41F20E
:1013100011131A4207D10A6A9B101A4203D10A68B4
:1013200022F001020A60012180F83D100020704780
:10133000704770B50446006801694FF00005C94365
:10134000890715D4C168C943890711D4E91E016111
:1013500001202077206880698007204602D0FFF7AF
:10136000E7FF04E000F098F8204600F096F82577B3
:1013700020680169C943490717D4C168C9434907AF
:1013800013D46FF004010161022020772068806986
:1013900010F4407F204602D0FFF7CAFF04E000F0BF
:1013A0007BF8204600F079F8257720680169C94369
:1013B000090716D4C168C943090712D46FF00801A0
:1013C0000161042020772068C0698007204602D090
:1013D000FFF7AEFF04E000F05FF8204600F05DF894
:1013E000257720680169C943C90617D4C168C94374
:1013F000C90613D46FF0100101610820207720681E
:10140000C06910F4407F204602D0FFF791FF04E04E
:1014100000F042F8204600F040F825772068016986
:10142000C943C90708D1C168C943C90704D1891E86
:101430000161204600F032F820680169C9430906BD
:1014400009D4C168C943090605D46FF08001016160
:101450002046FFF7D7FE20680169C943490609D431
:10146000C168C943490605D46FF0400101612046B7
:1014700000F040F820680169C94389060BD4C168AF
:10148000C943890607D46FF0200101612046BDE8F9
:101490007040FFF7B8BE70BD70477047704770B5B9
:1014A000044690F83C00012812D0012584F83C50F5
:1014B000022084F83D00204600F0CEFA01004FF0F3
:1014C000000007D084F83D5084F83C00012070BD36
:1014D000022070BD2168CA6822F04002CA602168FB
:1014E000CA6822F48042CA6084F83D5084F83C0007
:1014F000002070BD704770B5040004D094F8390026
:10150000002510B106E0012070BD84F83850204657
:1015100000F022F8242084F839002068C16821F402
:101520000051C160204600F0FDFA2068016921F4F5
:10153000904101612068416921F02A0141612068E0
:10154000C16841F40051C160E563202084F839008E
:1015500084F83A00002070BD30B585B000240094B6
:1015600001940294039400681449884224D11448D9
:10157000816941F480418161816901F48041049174
:10158000816941F00401816180690E4D00F0040021
:1015900004904FF40070009002200190032003900B
:1015A00069462846FFF702FA2815CDE90004694686
:1015B00028460294FFF7FAF905B030BD0038014023
:1015C00000100240000801402DE9F843044690F85D
:1015D00039001F4616460D46202850D1A5B19EB1B0
:1015E00094F8380001284AD0012084F838004FF0E0
:1015F0000008C4F83C80212084F83900FFF7D0FAB5
:10160000A6848146E68426E00120BDE8F883E08CCC
:10161000401EE084A0684B46B0F5805F4FF00002AA
:101620004FF080012046009703D000F0D7FAE8B9C8
:101630000DE000F0D3FAC8B928882168C0F308008B
:101640004860206908B16D1C05E0AD1C03E021680D
:1016500015F8010B4860E08C0028D8D14B460022D9
:1016600040212046009700F0B9FA08B10320CCE7EA
:10167000202084F8390084F838800020C5E7022053
:10168000C3E7FEE7F0B585B000242048009401943C
:1016900002940394816941F010018161816901F034
:1016A00010010491816941F004018161816901F0B7
:1016B00004010491816941F0400181618069144E07
:1016C00000F040004FF47F45049001222946304647
:1016D000FFF761FA072002278DE8910069460D485F
:1016E000FFF764F9CDE90074012469460A480294C1
:1016F000FFF75CF90320CDE90240CDE900546946CB
:101700003046FFF753F905B0F0BD0000001002406D
:1017100000180140001001400008014010B588B0D9
:1017200014216846FEF715FD0024144805944FF077
:101730008041069401604721C0E901144FF6FE7113
:10174000C0E903148461FFF780FD08B1FFF712F9C7
:101750002020CDE9004069460848FFF7A0FE08B107
:10176000FFF708F9059405A904480694FFF74CFD16
:10177000002801D0FFF7FEF808B010BD540000208B
:1017800010B588B014216846FEF7E3FC0024154824
:10179000059413490694016041F61F41C0E9011404
:1017A0004FF6FE71C0E903148461FFF74EFD08B1E6
:1017B000FFF7E0F83020CDE9004069460948FFF71F
:1017C0006EFE08B1FFF7D6F8059405A90548069402
:1017D000FFF71AFD002801D0FFF7CCF808B010BDC4
:1017E00000040040940000200C4810B50A49016034
:1017F0004FF4E1314160002181600C22C160C0E9F9
:1018000004128161C161FFF776FE002803D0BDE8B4
:101810001040FFF7AFB810BD00380140D4000020E1
:10182000FEE770470348002101708170417000F0AD
:1018300005B8000000000020AFF300802DE9F05F44
:10184000DFF8CC804FF00009012688F8039098F863
:1018500002004D463746CA46F0BBFFF727F8D8BB13
:10186000F020FFF779F83C2000F07EFE08F1040B31
:10187000FEF794FF0446FEF791FF04B158BB844283
:1018800003D02046012C09D013E098F800008642CE
:1018900008D21BF80500384006D001201BF80520AF
:1018A0003A4309E0F9D00020B146092E01D288F868
:1018B00001901BF80520BA430BF80520FFF724F828
:1018C000761C7800F6B210F0FF0702D16D1CEDB265
:1018D0000127082DCCD300E011E0412E0FD398F85A
:1018E0000310404659B95FEA0901017002D1012194
:1018F00088F802109BF800100120002906D188F812
:1019000000A088F802A088F801A00020BDE8F09FA0
:1019100000000020704700228B5C8354521C082A70
:10192000FADB70477047FFF741B930B58FB0282117
:101930006846FEF70EFC14210AA8FEF70AFC0121F6
:101940000804CDE900100024029402250491CDE999
:101950000750000109906846FFF7B0FA0F20CDE963
:101960000A056802CDE90C4002210AA80E94FFF78F
:10197000B5F90FB030BD00000D48016841F001011C
:10198000016041680B4A1140416001680A4A1140F8
:101990000160016821F480210160416821F4FE01A9
:1019A00041604FF41F0181600449C0030860704723
:1019B000001002400000FFF8FFFFF6FE08ED00E017
:1019C0000148FFF7B6BC0000540000200148FFF7B3
:1019D000B0BC000094000020F0B50268164B174C14
:1019E000174D4FF08047984205D0B84203D0A0422F
:1019F00001D0A84203D122F070064A6832439842CF
:101A000005D0B84203D0A04201D0A84203D122F4AD
:101A10004074CA6822434C6922F08002224302606B
:101A20008A68C2620A688262984201D109690163C8
:101A300001214161F0BD0000002C01400004004084
:101A40000008004010B5846842EA032224F47F4471
:101A50000A432243826010BD10B503689A6822F0E1
:101A600070044A68224322F007040A6822439A60FD
:101A70004A6812F00F0F30D11211082A2DD2DFE878
:101A800002F02C2C2C2C0B2127040B69D1E902210C
:101A90000068FFF7D7FF20E00A68052A10D0026827
:101AA000136A146A24F001041462026894690969D3
:101AB00024F0F00444EA01119161006803620CE033
:101AC000012010BD0A698968006800F008F804E088
:101AD0000A698968006800F013F8002010BD10B58D
:101AE000036A046A24F001040462846924F0F004A7
:101AF00044EA021423F00A020A438461026210BD20
:101B000010B5036A23F0100303628369046A23F4A7
:101B1000704343EA023224F0A00343EA01118261D8
:101B2000016210BD2DE9F041044600680169E268D8
:101B300021F44051114301612169A06808436169A2
:101B400008432168CA6841F20C639A430243CA60A1
:101B500020684169A26921F44071114341611E4925
:101B6000206864253226884202D1FFF75DF901E042
:101B7000FFF74AF900EBC00101EB001160686FF05C
:101B800018078000B1FBF0F2B2FBF5F2B1FBF0F305
:101B90007A4303EB8202B1FBF0F306EB0212B2FBD5
:101BA000F5F2B3FBF5F302F0F00202EB0312B1FB26
:101BB000F0F3B1FBF0F0B0FBF5F0784303EB8000FD
:101BC00006EB0010B0FBF5F0216800F00F001044A8
:101BD0008860BDE8F0810000003801402DE9F04147
:101BE000984617460E460446069D1DE0681C1BD00D
:101BF0002DB1FEF7D5FFA0EB0800A84214D920684C
:101C0000C16821F4D071C1602068416921F00101EF
:101C10004161202084F8390084F83A00002084F8DB
:101C200038000320BDE8F0812068006836EA000033
:101C300004D00020B842D9D00020F3E70120F9E712
:101C4000FEE700000FB4054B10B503A9044A029843
:101C500000F0DAF810BC5DF814FB000091250008D4
:101C6000200000200907090E002804DB00F1E02015
:101C700080F80014704700F00F0000F1E02080F8B9
:101C8000141D704702E008C8121F08C1002AFAD1CB
:101C900070477047002001E001C1121F002AFBD1EC
:101CA000704700002DE9FF5FDDE90220010DDDF83E
:101CB00038B0024318D044F61050A1F2FF3141432E
:101CC0000D140F98012820D0A5EB0B00401C5FEAF3
:101CD000000A4FF00004474EDFF81C91A046504622
:101CE00016D5CAF1000728E00F98012443A2012865
:101CF00008D0002100980F9BC0E90021C0E90243F1
:101D0000BDE8FF9F6FEA0B01F4E7CBF10000DEE7CF
:101D1000074612E0F80707D02246334640464946B8
:101D2000FEF7F7FB804689462246334610461946A1
:101D3000FEF7EFFB04460E467F10002FEAD1DDE9E7
:101D40000201BAF1000F42464B4602DAFEF7E1FB10
:101D500001E0FEF750FC04460E460022284BFEF739
:101D6000D1FC03D84FF0FF30014607E00022254B9D
:101D700020463146FEF726FBFEF7ACFC102409E0B6
:101D8000002C0ADB0A220023FEF757FA019B3032AF
:101D90001A55641E50EA0102F2D1641C019AC4F182
:101DA000110314440F9A012A03D0012208430DD1D4
:101DB0000AE0084304D000204FF0110B0F9080E799
:101DC000A3EB0B056D1E0DE05B4504DD4FF000023B
:101DD00005F1010504E003DA4FF00002A5F1010569
:101DE000002AECD000980F99C0E90231C0E9004503
:101DF00086E70000000024400000F03F30000000B3
:101E00000000F0430000E03F2DE9FF4F95B09B46F6
:101E10008946064600250FE2252877D1002427466B
:101E2000F84A0121059400E0044316F8013F203BE5
:101E300001FA03F01042F7D130782A2811D06FF060
:101E40002F033078A0F13002092A16D8059A44F001
:101E5000020402EB820203EB42021044761C05905E
:101E6000EFE759F8042B0592002A03DA504244F4B4
:101E70000054059044F00204761C30782E2816D1C8
:101E800016F8010F44F004042A280DD06FF02F0239
:101E90003078A0F13003092B09D807EB870302EB58
:101EA0004303C718761CF3E759F8047B761C307897
:101EB0006C280FD006DC4C2817D068280DD06A2873
:101EC00014D104E0742810D07A280FD10DE044F426
:101ED00000140AE044F4801401E044F440147278E1
:101EE000824202D104F58014761C761C3078662874
:101EF0000BD013DC582877D009DC002875D0452892
:101F0000F6D04628F4D047281AD19DE118E063287E
:101F100035D0642879D0652812D195E1702873D026
:101F200008DC6728F1D069286FD06E280DD06F28A3
:101F300006D1B5E073282CD0752875D0782874D0D8
:101F40005A46179990476D1C75E1C4F30250022858
:101F500009D003280DD0D9F8001004280DD00D6049
:101F600009F1040967E1D9F80010EA17C1E9005244
:101F7000F6E7D9F800100D80F2E70D70F0E719F8D8
:101F8000041B8DF8001000208DF80100EA460120A6
:101F900003E059F804AB4FF0FF3061074FF0000148
:101FA00002D40DE008F101018846B9420FDA8045FC
:101FB000F8DB1AF808100029F4D108E008F1010153
:101FC00088468142FADB1AF808100029F6D10598F4
:101FD0005B46A0EB080721463846179A00F094FAB2
:101FE000284400EB080507E04DE029E10DE01AF870
:101FF000010B5A4617999047B8F10108F7D25B4692
:1020000021463846179A13E142E00A220092C4F3AF
:1020100002524FF0000A022A08D059F804CB032AD2
:102020004FEAEC710AD00DE029E02AE009F107013E
:1020300021F00702F2E802C1914609E00FFA8CFC98
:102040004FEAEC71042A03D14FFA8CFC4FEAEC7191
:10205000002907DA0A460021DCF1000C61EB0201DD
:102060002D2202E0220504D52B228DF80420012226
:1020700003E0E20701D02022F7E7904659E00A2169
:1020800002E010220DE010214FF0000A00910BE059
:1020900010224FF0000A44F004040827009203E0E5
:1020A00008224FF0000A0092C4F30252022A05D01F
:1020B00059F804CB0021032A08D009E009F10701EF
:1020C00021F00702F2E802C1914605E01FFA8CFCFC
:1020D000042A01D10CF0FF0C4FF00008220728D58C
:1020E000702806D0009B83F0100353EA0A0305D042
:1020F0000EE040228DF80420012208E05CEA010293
:1021000006D030228DF804208DF80500022290467A
:10211000009B83F0080353EA0A030AD15CEA010238
:1021200001D1620705D530228DF804204FF0010857
:102130007F1E582804D034A003900EA802900DE012
:1021400036A0F9E753466046009AFEF776F88446D3
:102150000398825C0298401E029002705CEA0100C3
:10216000F0D1029806A9081A00F1200A600702D5EA
:1021700024F4803400E00127574502DDA7EB0A0074
:1021800000E0002000EB0A01009005984144401A4D
:102190000590E00306D45B462146179A059800F0A7
:1021A000B3F90544002706E001A85A46C05D179917
:1021B00090476D1C7F1C4745F6DBE0030CD55B4662
:1021C0002146179A059800F09FF9054404E0302055
:1021D0005A46179990476D1C0099481E0090002997
:1021E000F5DC08E0029802995A460078491C0291F1
:1021F000179990476D1CBAF10001AAF1010AF1DCB0
:1022000065E10000092801003031323334353637BA
:102210003839616263646566000000003031323332
:1022200034353637383941424344454600000000D2
:1022300000F058F90544761C307800287FF4ECADA6
:1022400019B02846BDE8F08F620700D4062709F1CF
:10225000070222F0070CFCE80223E14603F00048E5
:102260005FEA080C02D00FF2702C0DE05FEA045C0C
:1022700002D50FF2682C07E05FEAC47C02D00FF2AF
:10228000602C01E0AFF2700C4FF0FF3823F00043F8
:10229000CDF850C065280CD006DC452809D046286A
:1022A0001DD047283DD13DE0662818D067287ED153
:1022B00038E00021112F01DB112000E0781CCDE96E
:1022C000000106A90EA8FFF7EDFCDDE90F010E9A4B
:1022D00003910021009207F1010A04914DE04FF0B3
:1022E00000400097CDE9011006A90EA8FFF7DAFC1F
:1022F000DDE90F0203920E9B11990022DDF80CA07C
:102300000093049211B9791C00EB010AB7EB0A00A3
:1023100004D4C0F1FF3007F1010A0490AAEB0700D2
:10232000019044E0012F00DA01270021112F01DD87
:10233000112000E03846CDE9000106A90EA8FFF7FC
:10234000B1FCDDE90F010E9A039100210491009286
:10235000BA4621070CD40399514500DA8A46BAF1EE
:10236000010F05DD009AAAF10101515C302908D066
:10237000B84202DA10F1040F06DA0121CDE90110AA
:1023800015E0AAF10101E9E7002805DC0499014400
:102390000491AAEB000102E0411C514500DD8A4690
:1023A0000499401A401C01904FF000400290200711
:1023B00004D40198504501DBCDF8048000208DF84D
:1023C0004F0002980DF14F07B0F1004F25D02B20A0
:1023D0000E9002984FF0020800280CDA404202905A
:1023E0002D200E9007E00A210298FDF710FF3031F2
:1023F000029007F8011DB8F10001A8F10108F2DC14
:1024000002980028EFD1791E0E980870307800F0FD
:10241000200040F0450007F8020D12A8C01B00F193
:1024200007081498007800B1012000EB0A01019818
:1024300001EBE07105984144401A401E0590E0030D
:1024400006D45B462146179A059800F05DF80544CE
:102450001498007818B15A46179990476D1CE003FC
:1024600024D55B462146179A059800F04DF805449F
:102470001CE00498002807DBDDE90301884203DD46
:102480000098405C179901E0179930205A46904710
:10249000049805F10105401C04900198401E01902C
:1024A00004D12E205A46179990476D1CBAF10001AD
:1024B000AAF1010ADDDC05E017F8010B5A4617996D
:1024C00090476D1CB8F10001A8F10108F4DC5B46EF
:1024D0002146179A0598ABE62D0000002B0000005E
:1024E000200000002DE9F041044600251E46174655
:1024F000880404D405E039462020B0476D1C641ED2
:10250000F9D52846BDE8F0812DE9F04104460025C3
:102510001E469046C80301D5302700E020278804D6
:1025200004D505E041463846B0476D1C641EF9D518
:102530002846BDE8F081000010B504460948FEF7C2
:10254000CFFE084900200A685062096804EB840045
:102550004A6AB2EB400FFBD3BDE810400148FEF7DA
:10256000D1BE00009400002010B504460748FEF7D5
:10257000B7FE06480021026851620068416AA14224
:10258000FCD3BDE810400148FEF7BCBE540000205B
:1025900013B54FF6FF73012269460248FFF714F89E
:1025A00000981CBDD400002086B00025FEF706FB75
:1025B000FFF7BBF9FFF766F8FFF7B0F8FFF7E0F8B1
:1025C000FFF712F93DA0FFF73DFBFFF72BF9424C57
:1025D00006460DF1080C2079E379A27961798CE83F
:1025E0000F00E178A078CDE90001637822782946D0
:1025F0003AA0FFF727FB484D21462846FFF78BF905
:102600000127E6B1FFF718F9C8B120790DF1080CE0
:10261000E379A27961798CE80F00E178A078CDE9BF
:1026200000016378227839462CA0FFF70BFB05EBFD
:10263000C7002949FFF76FF97F1CFFB2E2E739466F
:1026400036A0FFF7FFFA3F4E39463FA03770FFF73D
:10265000F9FA002409E0611C41A0FFF7F3FA05EB49
:10266000C40000F0ABF8641CE4B230788442F2D3CA
:1026700041A0FFF7E7FA4FF47A774FF4FA7838463B
:10268000FFF75AFFFEF712F9CC20FEF765F9442058
:10269000FEF762F94046FFF74FFF002406E000BF57
:1026A00005EBC40000F0B4F8641CE4B23078844256
:1026B000F6D341A0FFF7C6FAE1E700005365617267
:1026C0006368696E6720445331384232302E2E2EB3
:1026D0002E2E2E0A000000000400002074686520E1
:1026E0004E4F2E256420524F4D203A3078253032FF
:1026F0007820253032782025303278202530327805
:10270000202530327820253032782025303278204C
:1027100025303278200A00002400002053656172C1
:10272000636820524F4D20646F6E652C25642064D1
:102730006576696365732064657465637465640AAE
:10274000000000000C00002053746F72656420527A
:102750004F4D20436F6465732025643A0A000000E2
:1027600053746F72656420746865204E4F2E256423
:1027700020524F4D203A00004E6F77207265616401
:10278000696E672074656D70657261747572652C11
:102790006F72646572696E67206279207468652063
:1027A000726F6D5F53656163682075702061626F41
:1027B00076650A0A000000000A0A000010B586B01B
:1027C00001790DF1040CC479837942798CE81E00FB
:1027D000C178009183784278017802A0FFF732FA3D
:1027E00006B010BD30782530327820253032782080
:1027F0002530327820253032782025303278202557
:1028000030327820253032782025303278200A0086
:1028100038B5044622A0FFF715FA69462046FDF7B1
:10282000F2FFBDF80010C0B20AB2002A03DA491E56
:10283000C943ADF800101F2806D03F280BD05F28F1
:1028400025D07F280FD129E088B220F00700ADF80D
:10285000000014A005E088B220F00400ADF80000EC
:1028600014A0FFF7EFF9BDF80000FDF794FC6FF03E
:102870000302FDF779FCFDF7AEFC0446FDF798FC7A
:1028800002460B4610A0FFF7DDF9204638BD88B29E
:1028900020F00100ADF800000FA0E2E713A0E0E790
:1028A00020000000436F6E66696720697320392E2F
:1028B0002E2E2000436F6E666967206973203130C9
:1028C0002E2E2E20000000005420697320252E3467
:1028D000662E2E2E200A0000436F6E6669672069FF
:1028E000732031312E2E2E2000000000436F6E66C3
:1028F0006967206973203132202E2E2E00000000DF
:10290000000000000000000001020304060708099F
:102910000000000001020304382900080000002024
:1029200024000000841C00085C290008240000200A
:10293000F4040000941C00080000000000000000E7
:102940000000000000000000010000001000000076
:0C295000000000000024F4000000000063
:04000005080000ED02
:00000001FF
